{
  "contractName": "DNS",
  "abi": [
    {
      "inputs": [
        {
          "internalType": "string",
          "name": "_version",
          "type": "string"
        }
      ],
      "stateMutability": "nonpayable",
      "type": "constructor"
    },
    {
      "inputs": [],
      "name": "devTeamAddress",
      "outputs": [
        {
          "internalType": "address",
          "name": "",
          "type": "address"
        }
      ],
      "stateMutability": "view",
      "type": "function",
      "constant": true
    },
    {
      "inputs": [
        {
          "internalType": "string",
          "name": "",
          "type": "string"
        }
      ],
      "name": "dns",
      "outputs": [
        {
          "internalType": "address",
          "name": "",
          "type": "address"
        }
      ],
      "stateMutability": "view",
      "type": "function",
      "constant": true
    },
    {
      "inputs": [
        {
          "internalType": "address",
          "name": "",
          "type": "address"
        }
      ],
      "name": "providers",
      "outputs": [
        {
          "internalType": "string",
          "name": "provider1",
          "type": "string"
        },
        {
          "internalType": "string",
          "name": "provider2",
          "type": "string"
        },
        {
          "internalType": "string",
          "name": "provider3",
          "type": "string"
        }
      ],
      "stateMutability": "view",
      "type": "function",
      "constant": true
    },
    {
      "inputs": [],
      "name": "version",
      "outputs": [
        {
          "internalType": "string",
          "name": "",
          "type": "string"
        }
      ],
      "stateMutability": "view",
      "type": "function",
      "constant": true
    },
    {
      "stateMutability": "payable",
      "type": "receive",
      "payable": true
    },
    {
      "inputs": [
        {
          "internalType": "string",
          "name": "_username",
          "type": "string"
        }
      ],
      "name": "register",
      "outputs": [],
      "stateMutability": "nonpayable",
      "type": "function"
    },
    {
      "inputs": [
        {
          "internalType": "string",
          "name": "_providerIP",
          "type": "string"
        },
        {
          "internalType": "uint256",
          "name": "_provider",
          "type": "uint256"
        }
      ],
      "name": "setProvider",
      "outputs": [],
      "stateMutability": "nonpayable",
      "type": "function"
    }
  ],
  "bytecode": "0x60806040523480156200001157600080fd5b50604051620017093803806200170983398181016040528101906200003791906200026b565b60008151036200007e576040517f08c379a000000000000000000000000000000000000000000000000000000000815260040162000075906200031d565b60405180910390fd5b80600090816200008f91906200058a565b5033600160006101000a81548173ffffffffffffffffffffffffffffffffffffffff021916908373ffffffffffffffffffffffffffffffffffffffff1602179055505062000671565b6000604051905090565b600080fd5b600080fd5b600080fd5b600080fd5b6000601f19601f8301169050919050565b7f4e487b7100000000000000000000000000000000000000000000000000000000600052604160045260246000fd5b6200014182620000f6565b810181811067ffffffffffffffff8211171562000163576200016262000107565b5b80604052505050565b600062000178620000d8565b905062000186828262000136565b919050565b600067ffffffffffffffff821115620001a957620001a862000107565b5b620001b482620000f6565b9050602081019050919050565b60005b83811015620001e1578082015181840152602081019050620001c4565b60008484015250505050565b600062000204620001fe846200018b565b6200016c565b905082815260208101848484011115620002235762000222620000f1565b5b62000230848285620001c1565b509392505050565b600082601f83011262000250576200024f620000ec565b5b815162000262848260208601620001ed565b91505092915050565b600060208284031215620002845762000283620000e2565b5b600082015167ffffffffffffffff811115620002a557620002a4620000e7565b5b620002b38482850162000238565b91505092915050565b600082825260208201905092915050565b7f456d70747920706172616d657465723a2076657273696f6e0000000000000000600082015250565b600062000305601883620002bc565b91506200031282620002cd565b602082019050919050565b600060208201905081810360008301526200033881620002f6565b9050919050565b600081519050919050565b7f4e487b7100000000000000000000000000000000000000000000000000000000600052602260045260246000fd5b600060028204905060018216806200039257607f821691505b602082108103620003a857620003a76200034a565b5b50919050565b60008190508160005260206000209050919050565b60006020601f8301049050919050565b600082821b905092915050565b600060088302620004127fffffffffffffffffffffffffffffffffffffffffffffffffffffffffffffffff82620003d3565b6200041e8683620003d3565b95508019841693508086168417925050509392505050565b6000819050919050565b6000819050919050565b60006200046b620004656200045f8462000436565b62000440565b62000436565b9050919050565b6000819050919050565b62000487836200044a565b6200049f620004968262000472565b848454620003e0565b825550505050565b600090565b620004b6620004a7565b620004c38184846200047c565b505050565b5b81811015620004eb57620004df600082620004ac565b600181019050620004c9565b5050565b601f8211156200053a576200050481620003ae565b6200050f84620003c3565b810160208510156200051f578190505b620005376200052e85620003c3565b830182620004c8565b50505b505050565b600082821c905092915050565b60006200055f600019846008026200053f565b1980831691505092915050565b60006200057a83836200054c565b9150826002028217905092915050565b62000595826200033f565b67ffffffffffffffff811115620005b157620005b062000107565b5b620005bd825462000379565b620005ca828285620004ef565b600060209050601f831160018114620006025760008415620005ed578287015190505b620005f985826200056c565b86555062000669565b601f1984166200061286620003ae565b60005b828110156200063c5784890151825560018201915060208501945060208101905062000615565b868310156200065c578489015162000658601f8916826200054c565b8355505b6001600288020188555050505b505050505050565b61108880620006816000396000f3fe6080604052600436106100595760003560e01c80630787bc271461009e57806354fd4d50146100dd57806376041376146101085780638ff5c7dc14610133578063aae315c614610170578063f2c298be1461019957610099565b36610099576040517f08c379a0000000000000000000000000000000000000000000000000000000008152600401610090906107d1565b60405180910390fd5b600080fd5b3480156100aa57600080fd5b506100c560048036038101906100c09190610863565b6101c2565b6040516100d49392919061090f565b60405180910390f35b3480156100e957600080fd5b506100f2610384565b6040516100ff919061095b565b60405180910390f35b34801561011457600080fd5b5061011d610412565b60405161012a919061098c565b60405180910390f35b34801561013f57600080fd5b5061015a60048036038101906101559190610adc565b610438565b604051610167919061098c565b60405180910390f35b34801561017c57600080fd5b5061019760048036038101906101929190610b5b565b610481565b005b3480156101a557600080fd5b506101c060048036038101906101bb9190610adc565b610637565b005b60036020528060005260406000206000915090508060000180546101e590610be6565b80601f016020809104026020016040519081016040528092919081815260200182805461021190610be6565b801561025e5780601f106102335761010080835404028352916020019161025e565b820191906000526020600020905b81548152906001019060200180831161024157829003601f168201915b50505050509080600101805461027390610be6565b80601f016020809104026020016040519081016040528092919081815260200182805461029f90610be6565b80156102ec5780601f106102c1576101008083540402835291602001916102ec565b820191906000526020600020905b8154815290600101906020018083116102cf57829003601f168201915b50505050509080600201805461030190610be6565b80601f016020809104026020016040519081016040528092919081815260200182805461032d90610be6565b801561037a5780601f1061034f5761010080835404028352916020019161037a565b820191906000526020600020905b81548152906001019060200180831161035d57829003601f168201915b5050505050905083565b6000805461039190610be6565b80601f01602080910402602001604051908101604052809291908181526020018280546103bd90610be6565b801561040a5780601f106103df5761010080835404028352916020019161040a565b820191906000526020600020905b8154815290600101906020018083116103ed57829003601f168201915b505050505081565b600160009054906101000a900473ffffffffffffffffffffffffffffffffffffffff1681565b6002818051602081018201805184825260208301602085012081835280955050505050506000915054906101000a900473ffffffffffffffffffffffffffffffffffffffff1681565b60008251036104c5576040517f08c379a00000000000000000000000000000000000000000000000000000000081526004016104bc90610c63565b60405180910390fd5b60018114806104d45750600281145b806104df5750600381145b61051e576040517f08c379a000000000000000000000000000000000000000000000000000000000815260040161051590610cf5565b60405180910390fd5b6001810361057b5781600360003373ffffffffffffffffffffffffffffffffffffffff1673ffffffffffffffffffffffffffffffffffffffff16815260200190815260200160002060000190816105759190610ec1565b50610633565b600281036105d85781600360003373ffffffffffffffffffffffffffffffffffffffff1673ffffffffffffffffffffffffffffffffffffffff16815260200190815260200160002060010190816105d29190610ec1565b50610632565b600381036106315781600360003373ffffffffffffffffffffffffffffffffffffffff1673ffffffffffffffffffffffffffffffffffffffff168152602001908152602001600020600201908161062f9190610ec1565b505b5b5b5050565b600081510361067b576040517f08c379a000000000000000000000000000000000000000000000000000000000815260040161067290610fdf565b60405180910390fd5b600073ffffffffffffffffffffffffffffffffffffffff166002826040516106a3919061103b565b908152602001604051809103902060009054906101000a900473ffffffffffffffffffffffffffffffffffffffff1673ffffffffffffffffffffffffffffffffffffffff160361074b57336002826040516106fe919061103b565b908152602001604051809103902060006101000a81548173ffffffffffffffffffffffffffffffffffffffff021916908373ffffffffffffffffffffffffffffffffffffffff1602179055505b50565b600082825260208201905092915050565b7f5468697320636f6e747261637420646f65736e2774206163636570742065746860008201527f6572730000000000000000000000000000000000000000000000000000000000602082015250565b60006107bb60238361074e565b91506107c68261075f565b604082019050919050565b600060208201905081810360008301526107ea816107ae565b9050919050565b6000604051905090565b600080fd5b600080fd5b600073ffffffffffffffffffffffffffffffffffffffff82169050919050565b600061083082610805565b9050919050565b61084081610825565b811461084b57600080fd5b50565b60008135905061085d81610837565b92915050565b600060208284031215610879576108786107fb565b5b60006108878482850161084e565b91505092915050565b600081519050919050565b60005b838110156108b957808201518184015260208101905061089e565b60008484015250505050565b6000601f19601f8301169050919050565b60006108e182610890565b6108eb818561074e565b93506108fb81856020860161089b565b610904816108c5565b840191505092915050565b6000606082019050818103600083015261092981866108d6565b9050818103602083015261093d81856108d6565b9050818103604083015261095181846108d6565b9050949350505050565b6000602082019050818103600083015261097581846108d6565b905092915050565b61098681610825565b82525050565b60006020820190506109a1600083018461097d565b92915050565b600080fd5b600080fd5b7f4e487b7100000000000000000000000000000000000000000000000000000000600052604160045260246000fd5b6109e9826108c5565b810181811067ffffffffffffffff82111715610a0857610a076109b1565b5b80604052505050565b6000610a1b6107f1565b9050610a2782826109e0565b919050565b600067ffffffffffffffff821115610a4757610a466109b1565b5b610a50826108c5565b9050602081019050919050565b82818337600083830152505050565b6000610a7f610a7a84610a2c565b610a11565b905082815260208101848484011115610a9b57610a9a6109ac565b5b610aa6848285610a5d565b509392505050565b600082601f830112610ac357610ac26109a7565b5b8135610ad3848260208601610a6c565b91505092915050565b600060208284031215610af257610af16107fb565b5b600082013567ffffffffffffffff811115610b1057610b0f610800565b5b610b1c84828501610aae565b91505092915050565b6000819050919050565b610b3881610b25565b8114610b4357600080fd5b50565b600081359050610b5581610b2f565b92915050565b60008060408385031215610b7257610b716107fb565b5b600083013567ffffffffffffffff811115610b9057610b8f610800565b5b610b9c85828601610aae565b9250506020610bad85828601610b46565b9150509250929050565b7f4e487b7100000000000000000000000000000000000000000000000000000000600052602260045260246000fd5b60006002820490506001821680610bfe57607f821691505b602082108103610c1157610c10610bb7565b5b50919050565b7f456d70747920706172616d657465723a2050726f766964657220495000000000600082015250565b6000610c4d601c8361074e565b9150610c5882610c17565b602082019050919050565b60006020820190508181036000830152610c7c81610c40565b9050919050565b7f506172616d65746572204572726f723a2050726f7669646572206d757374206260008201527f6520312c2032206f722033000000000000000000000000000000000000000000602082015250565b6000610cdf602b8361074e565b9150610cea82610c83565b604082019050919050565b60006020820190508181036000830152610d0e81610cd2565b9050919050565b60008190508160005260206000209050919050565b60006020601f8301049050919050565b600082821b905092915050565b600060088302610d777fffffffffffffffffffffffffffffffffffffffffffffffffffffffffffffffff82610d3a565b610d818683610d3a565b95508019841693508086168417925050509392505050565b6000819050919050565b6000610dbe610db9610db484610b25565b610d99565b610b25565b9050919050565b6000819050919050565b610dd883610da3565b610dec610de482610dc5565b848454610d47565b825550505050565b600090565b610e01610df4565b610e0c818484610dcf565b505050565b5b81811015610e3057610e25600082610df9565b600181019050610e12565b5050565b601f821115610e7557610e4681610d15565b610e4f84610d2a565b81016020851015610e5e578190505b610e72610e6a85610d2a565b830182610e11565b50505b505050565b600082821c905092915050565b6000610e9860001984600802610e7a565b1980831691505092915050565b6000610eb18383610e87565b9150826002028217905092915050565b610eca82610890565b67ffffffffffffffff811115610ee357610ee26109b1565b5b610eed8254610be6565b610ef8828285610e34565b600060209050601f831160018114610f2b5760008415610f19578287015190505b610f238582610ea5565b865550610f8b565b601f198416610f3986610d15565b60005b82811015610f6157848901518255600182019150602085019450602081019050610f3c565b86831015610f7e5784890151610f7a601f891682610e87565b8355505b6001600288020188555050505b505050505050565b7f456d70747920706172616d657465723a20757365726e616d6500000000000000600082015250565b6000610fc960198361074e565b9150610fd482610f93565b602082019050919050565b60006020820190508181036000830152610ff881610fbc565b9050919050565b600081905092915050565b600061101582610890565b61101f8185610fff565b935061102f81856020860161089b565b80840191505092915050565b6000611047828461100a565b91508190509291505056fea26469706673582212201db5864fee798445c6768285829ea42668c740db120658ffd45b5601a97382e564736f6c63430008130033",
  "immutableReferences": {},
  "source": "// SPDX-License-Identifier: UNLICENSED\r\npragma solidity ^0.8.16;\r\n\r\ncontract DNS{\r\n    // Contract version\r\n    string public version;\r\n\r\n    // Development Team address\r\n    address public devTeamAddress;\r\n\r\n    // Mapping: username -> DNSData\r\n    mapping (string => address) public dns;\r\n\r\n    struct Provider {\r\n        string provider1;\r\n        string provider2;\r\n        string provider3;\r\n    }\r\n\r\n    mapping (address => Provider) public providers;\r\n\r\n    // Constructor for deploying the smart contract\r\n    constructor(string memory _version) {\r\n        require(bytes(_version).length != 0, \"Empty parameter: version\");\r\n        version = _version;\r\n        devTeamAddress = msg.sender;\r\n    }\r\n\r\n    // \r\n    receive() external payable {\r\n        revert(\"This contract doesn't accept ethers\");\r\n    }\r\n\r\n    // Register a new username\r\n    function register(string memory _username) public {\r\n        require(bytes(_username).length != 0, \"Empty parameter: username\");\r\n        if(dns[_username] == address(0x0)){\r\n            dns[_username] = msg.sender;\r\n        }\r\n    }\r\n\r\n    function setProvider(string memory _providerIP, uint _provider) public {\r\n        require(bytes(_providerIP).length != 0, \"Empty parameter: Provider IP\");\r\n        require((_provider == 1) || (_provider == 2) || (_provider == 3), \"Parameter Error: Provider must be 1, 2 or 3\");\r\n        if(_provider == 1){\r\n            providers[msg.sender].provider1 = _providerIP;\r\n        } else if(_provider == 2){\r\n            providers[msg.sender].provider2 = _providerIP;\r\n        } else if(_provider == 3){\r\n            providers[msg.sender].provider3 = _providerIP;\r\n        }\r\n    }\r\n}",
  "sourcePath": "C:\\Javier\\Studies\\3-Master\\2oCurso\\2oCuatrimestre\\TFM\\code\\truffle\\contracts\\DNS.sol",
  "compiler": {
    "name": "solc",
    "version": "0.8.19+commit.7dd6d404.Emscripten.clang"
  },
  "schemaVersion": "3.4.13",
  "updatedAt": "2023-03-09T14:37:45.715Z",
  "networkType": "ethereum",
  "devdoc": {
    "kind": "dev",
    "methods": {},
    "version": 1
  },
  "userdoc": {
    "kind": "user",
    "methods": {},
    "version": 1
  }
}